:060000000A128A11122809
:10000800FE00030E83160313B1000408B2000A08A9
:10001800B3007F08B4000A128A15082F0A128A1141
:1000280015288313C1308400D2300A128A15D121D1
:100038000A128A1183010A128A15D12A831203131C
:100048003D088039C2004208C7003D08C200420787
:10005800C3004308CD00BC1F3228332834284D1470
:100068004D0803193828392848284D0A031D3D280A
:100078003E2846280030BD000030BC000030BB00E0
:100088000030BA00BC1750280030BD000030BC005A
:100098000030BB000030BA0041088039C200420875
:1000A800C7064108C2004207C3004308CC00C01F6E
:1000B8005E285F2860284C144C08031964286528BA
:1000C80074284C0A031D69286A2872280030C10068
:1000D8000030C0000030BF000030BE00C0177C28D0
:1000E8000030C1000030C0000030BF000030BE004A
:1000F8004C0803198028812886284D08031D852867
:1001080086288F280030BD000030BC000030BB00BE
:100118000030BA00822B3A08C2004208F0004008BA
:100128000A128A1546220A128A11710883120313C9
:10013800D3007008D2005208C200C301C401C5012F
:100148004508CB004408CA004308C9004208C80053
:100158005308C200C301C401C5014508D1004408C1
:10016800D0004308CF004208CE003B08C200420836
:10017800F0003F080A128A1546220A128A117108ED
:1001880083120313D3007008D2005208C200C301BF
:10019800C401C5014208C807430803110318013EFA
:1001A8000319D728C907440803110318013E031986
:1001B800DE28CA07450803110318013E0319E5287C
:1001C800CB075308C200C301C401C5014208CE07CA
:1001D800430803110318013E0319F328CF07440805
:1001E80003110318013E0319FA28D0074508031123
:1001F8000318013E03190129D1073C08C20042082F
:10020800F0003E080A128A1546220A128A1171085D
:1002180083120313D3007008D2005208C200C3012E
:10022800C401C5014208C807430803110318013E69
:1002380003191F29C907440803110318013E0319AC
:100248002629CA07450803110318013E03192D2959
:10025800CB075308C200C301C401C5014208CE0739
:10026800430803110318013E03193B29CF0744082B
:1002780003110318013E03194229D0074508031149
:100288000318013E03194929D1070830C200031099
:10029800C80DC90DCA0DCB0DC20B4B293B08C200B6
:1002A8004208F0003E080A128A1546220A128A11EC
:1002B800710883120313D3007008D2005208C200D9
:1002C8005308C300C401C5014208C8074308031105
:1002D8000318013E03197129C907440803110318BB
:1002E800013E03197829CA07450803110318013E7E
:1002F80003197F29CB073A08C2004208F0003F08DB
:100308000A128A1546220A128A11710883120313E7
:10031800D3007008D2005208C2005308C300C401B9
:10032800C5014208C807430803110318013E031911
:100338009E29C907440803110318013E0319A5297A
:10034800CA07450803110318013E0319AC29CB0756
:100358000830C2000310C80DC90DCA0DCB0DC20B61
:10036800AE293A08C2004208F0003E080A128A156F
:1003780046220A128A11710883120313D3007008E7
:10038800D2005208C2005308C300C401C501420884
:10039800C807430803110318013E0319D429C907E4
:1003A800440803110318013E0319DB29CA0745084D
:1003B80003110318013E0319E229CB073B08C200C9
:1003C8004208F00040080A128A1546220A128A11C9
:1003D800710883120313D3007008D2005208C200B8
:1003E8005308C300C401C5014208CE0743080311DE
:1003F8000318013E0319012ACF0744080311031803
:10040800013E0319082AD007450803110318013EC5
:1004180003190F2AD1073C08C2004208F0003F0820
:100428000A128A1546220A128A11710883120313C6
:10043800D3007008D2005208C2005308C300C40198
:10044800C5014208CE07430803110318013E0319EA
:100458002E2ACF07440803110318013E0319352A31
:10046800D007450803110318013E03193C2AD10798
:100478003C08C2004208F00040080A128A154622C9
:100488000A128A11710883120313D3007008D2006C
:100498005208C2005308C300C401C5010830031044
:1004A800C20DC30DC40DC50DFF3E031D532A4208DE
:1004B800CE07430803110318013E0319642ACF0726
:1004C800440803110318013E03196B2AD007450895
:1004D80003110318013E0319722AD1074808C20004
:1004E8004908C3004A08C4004B08C5001830031067
:1004F800C50CC40CC30CC20CFF3E031D7B2A42086A
:10050800CE07430803110318013E03198C2ACF07AD
:10051800440803110318013E0319932AD00745081C
:1005280003110318013E03199A2AD1070830C200A3
:100538000310C80DC90DCA0DCB0DC20B9C2A4D085E
:100548004C07C200C301C30D4208823ED2004308D3
:100558000318013EFF3ED300CE2A0130C20003102B
:10056800CE0DCF0DD00DD10DC20BB32ACB1FBD2A96
:10057800BE2ABF2A4E140130C2000310C80DC90D8F
:10058800CA0DCB0DC20BC12AFF30D2070318D30AFC
:10059800FF30D307D01FD12AD22AB12ACC01CB1FD2
:1005A800D62AD72AF32AFF304805C200FF3049056A
:1005B800C300FF304A05C4007F304B05C50045081D
:1005C8004404430442040319EA2AEB2AEE2ACC0124
:1005D800CC0AF32A4E1CF12AF22AF32AEB2A4C08F9
:1005E8000319F72AF82A292B0130CE0700300318FF
:1005F8000130CF07003003180130D007003003184E
:100608000130D107511C092B0A2B292B4E08C20097
:100618004F08C3005008C4005108C5000130C60087
:10062800450DC50CC40CC30CC20CC60B142B4508D5
:10063800D1004408D0004308CF004208CE00013062
:10064800D2070318D30A0030D3075308803AFF00B3
:1006580080307F02031D322BFF305202031C352BE2
:10066800362B412B7F3083120313D1008030D0000A
:100678000030CF000030CE00762B831203135308CE
:10068800803AFF0080307F02031D4C2B013052025C
:1006980003184F2B502B5C2B003083120313D1000F
:1006A8000030D0000030CF000030CE00C701762BDC
:1006B800831203135208C2004208CD00FF30CE0552
:1006C800FF30CF057F30D0050030D1054D1C6D2B94
:1006D8006E2B6F2BD0174D08C2000310420CC300BD
:1006E8004308D1004708C2004208D1045108BD00A0
:1006F8005008BC004F08BB004E08BA00080083121F
:10070800031357088039DC005C08E4005708DC0054
:100718005C07DD005D08E600D61F932B942B952B14
:10072800661466080319992B9A2BAA2B660A031DCF
:100738009E2B9F2BA72B0030D7000030D60000300F
:10074800D5000030D400D617D701B22B0030D7001F
:100758000030D6000030D5000030D4005B08803966
:10076800DC005C08E500650864060319BC2BBD2B9A
:10077800BE2B64175B08DC005C07DD005D08E50044
:10078800DA1FC72BC82BC92B651465080319CD2B95
:10079800CE2BDE2B650A031DD22BD32BDB2B00308F
:1007A800DB000030DA000030D9000030D800DA175A
:1007B800DB01E62B0030DB000030DA000030D90026
:1007C8000030D800660865020318EB2BEC2B302CA0
:1007D800641FEF2BF02BF42B8030DC005C08E40660
:1007E8006608DC005C08E7006508DC005C08E600D9
:1007F8006708DC005C08E5005408DC005C08E700DA
:100808005808DC005C08D4006708DC005C08D800E5
:100818005508DC005C08E7005908DC005C08D500D6
:100828006708DC005C08D9005608DC005C08E700B3
:100838005A08DC005C08D6006708DC005C08DA00AF
:100848005708DC005C08E7005B08DC005C08D700A0
:100858006708DC005C08DB00E7016508DC00DD01F7
:100868005D08DF0066085C02DE00031CDF035F082A
:10087800803AFF0080307F02031D442C1A305E024C
:10088800031C472C482C852C831203135708560445
:1008980055045404031D512C532C0130542C0030A2
:1008A800DC005C08E7000030D7000030D6000030DC
:1008B800D5000030D4006508DC005C08E6008D2C0B
:1008C800671C672C682C712C6708DC0003105C0C13
:1008D8000138DD005D08E700732C0310E70C541C99
:1008E800762C772C782CE7170130DC00570DD70CC5
:1008F800D60CD50CD40CDC0B7A2C0130DC005C084F
:10090800E6078312031365086602031C8C2C8D2CE2
:10091800642C641B902C912CDC2C6608031D952CF0
:10092800962C9F2C0030D7000030D6000030D50020
:100938000030D4000A2E5808D407590803110318A8
:10094800013E0319A82CD5075A0803110318013EC4
:100958000319AF2CD6075B0803110318013E0319CE
:10096800B62CD707571CB92CBA2C902D671CBD2C58
:10097800BE2CC72C6708DC0003105C0C0138DD00B6
:100988005D08E700C92C0310E70C541CCC2CCD2CB7
:10099800CE2CE7170130DC00570DD70CD60CD50C40
:1009A800D40CDC0BD02C0130DC005C08E607902D61
:1009B8005708803AFF005B08803A7F02031DEE2C3F
:1009C8005A085602031DEE2C59085502031DEE2C39
:1009D800580854020318F12CF22C4A2DFF30DC0081
:1009E800FF30DD00FF30DE00FF30DF005808E00098
:1009F8005908E1005A08E2005B08E3005408E002E5
:100A08005508031C550F092D0A2DE1025608031C31
:100A1800560F0F2D102DE2025708031C570F152DE6
:100A2800162DE3026008DC0761080318610F1D2D0D
:100A38001E2DDD0762080318620F232D242DDE0703
:100A480063080318630ADF075F08D7005E08D6004B
:100A58005D08D5005C08D4008030DC005C08E40642
:100A6800E709E70A6708031D3A2D3B2D582D013089
:100A7800D407003003180130D507003003180130BF
:100A8800D607003003180130D707582D5808D4026C
:100A98005908031C590FD5025A08031C5A0FD602CD
:100AA8005B08031C5B0FD70257085604550454040F
:100AB800031D5F2D602D8C2D6708031D642D652D8A
:100AC8008C2D0030D7000030D6000030D500003023
:100AD800D4000A2E0130DC000310D40DD50DD60D3C
:100AE800D70DDC0B702DE71F7A2D7B2D7C2D541430
:100AF800671C7F2D802D832D0314E70D852D031092
:100B0800E70D66080319892D8A2D8C2D0130E60220
:100B1800D61F8F2D902D6E2DE501E71F942D952D55
:100B2800A32D67087F3903199A2D9B2D9E2DE5016A
:100B3800E50AA32D541CA12DA22DA32D9B2D6508DC
:100B48000319A72DA82DDC2D0130D4070030031878
:100B58000130D507003003180130D60700300318DC
:100B68000130D707571CB92DBA2DDC2D5408DC00ED
:100B78005508DD005608DE005708DF000130E000A8
:100B88005F0DDF0CDE0CDD0CDC0CE00BC42D5F0808
:100B9800D7005E08D6005D08D5005C08D400660A58
:100BA8000319D72DD82DDC2D0130DC005C08E607B1
:100BB800660A0319E02DE12DE62D6608031DE52DD3
:100BC800E62DF42D0030D7000030D6000030D500D7
:100BD8000030D4006608031DF22DF32DF42DE40136
:100BE800661CF72DF82DFA2DD617FE2D7F30DC0068
:100BF8005C08D6056608DC0003105C0CDD005D08A7
:100C0800D700E41F082E092E0A2ED71708008312D2
:100C1800031327088039A8002808B1002708A8006E
:100C28002807A9002908B800A61F1B2E1C2E1D2E58
:100C3800381438080319212E222E322E380A031DA3
:100C4800262E272E2F2E0030A7000030A6000030B9
:100C5800A5000030A400A617A7013A2E0030A7006F
:100C68000030A6000030A5000030A4002308803919
:100C7800A8002808B1062308A8002807A900290801
:100C8800B900A21F482E492E4A2E391439080319D3
:100C98004E2E4F2E5F2E390A031D532E542E5C2ED6
:100CA8000030A3000030A2000030A1000030A000F6
:100CB800A217A301672E0030A3000030A200003065
:100CC800A1000030A0002308220421042004031DF1
:100CD8006E2E6F2E882E0030A7000030A600003040
:100CE800A5000030A4008030A6047F30A704310896
:100CF800A8002808A7042708A3002608A20025089A
:100D0800A1002408A000E72F3808031D8C2E8D2E83
:100D1800962E0030A3000030A2000030A100003061
:100D2800A000E72F3808A800A9012908AB00390856
:100D38002802AA00031CAB032A087F3EB2002B0836
:100D48000318013E003EB3002708B0002608AF0094
:100D58002508AE002408AD000030A7000030A6002A
:100D68000030A5000030A4000030B7000030B60005
:100D78000030B5000030B400B9010C2F3908031950
:100D8800C62EC72EE72E0130A8000310AD0DAE0DFC
:100D9800AF0DB00DA80BC92E0130A8000310A40D8B
:100DA800A50DA60DA70DA80BD22EB71FDC2EDD2E84
:100DB800DE2E24140130A8000310B40DB50DB60DB5
:100DC800B70DA80BE02E23083002031DF52E2208CC
:100DD8002F02031DF52E21082E02031DF52E2008D3
:100DE8002D02031CF82EF92E082F37172008AD0204
:100DF8002108031C210FAE022208031C220FAF0298
:100E08002308031C230FB0020130A8002808B907E3
:100E18001A303902031C112F122FC22E30082F044A
:100E28002E042D040319192F1A2F392F3414392F92
:100E38000130A8000310A40DA50DA60DA70DA80B41
:100E48001E2FB71F282F292F2A2F24140130A8005E
:100E58000310B40DB50DB60DB70DA80B2C2FFF3030
:100E6800B2070318B30AFF30B307A61F3C2F3D2F64
:100E78001C2FB901B71F412F422F5E2FFF303405B9
:100E8800A800FF303505A900FF303605AA007F30DD
:100E98003705AB002B082A04290428040319552F09
:100EA800562F592FB901B90A5E2F241C5C2F5D2FCC
:100EB8005E2F562F39080319622F632F942F0130A4
:100EC800A407003003180130A507003003180130CB
:100ED800A607003003180130A707271C742F752FA9
:100EE800942F2408A8002508A9002608AA00270886
:100EF800AB000130AC002B0DAB0CAA0CA90CA80C54
:100F0800AC0B7F2F2B08A7002A08A6002908A500EC
:100F18002808A4000130B2070318B30A0030B30749
:100F28003308803AFF0080307F02031D9D2FFF3079
:100F38003202031CA02FA12FAF2FFF3083120313FF
:100F4800B2000030B3000030A7000030A600003027
:100F5800A5000030A400831203133308803AFF0071
:100F680080307F02031DBA2F013032020318BD2FD3
:100F7800BE2FCB2F83120313B201B3010030A70099
:100F88000030A6000030A5000030A400B101831293
:100F980003133208A8002808B800381CD42FD52F0E
:100FA800D72FA617DB2F7F30A8002808A6053808FA
:100FB800A8000310280CA9002908A7003108A800D8
:100FC8002808A7047F2E08007108F3007008F200B3
:100FD800730DF30CF20C730DF30CF20C7208831200
:100FE8000313950070080339F200F20E1708720611
:080FF800CF39720697000800D2
:1013A20064008001840A0406031900340406D22969
:1013B20083160313B50035088312031393008316B3
:1013C2000313141CE529E629E02983128C1DEA295E
:1013D200EB29E6298C1108008316031335088312C2
:1013E20003178D00831603178C130C148312031733
:1013F2000C0883160313B700B8013708B500380884
:10140200B6000800831603133508831203178D00F4
:10141200831603133708831203178C0083160317EE
:101422008C130C158B1355308D00AA308D008C1443
:101432000C11831203130D1E1F2A202A1A2A0D12C1
:101442000B108B170800831603133608B8003508F3
:10145200B700380DB80CB70C380DB80CB70C3708FC
:101462008312031395008316031335080339B7005B
:10147200B70E831203131708831603133706CF39E7
:1014820037068312031397000800F800F401F501F0
:101492007008F200F3017208F6007308F700781C76
:1014A200532A542A5A2A7608F4070318F50A7708A9
:1014B200F50701300310F60DF70DFF3E031D5B2A01
:1014C2000310F80C7808031D672A682A502A750849
:1014D200F1007408F00008007108F3007008F200CF
:1014E200730DF30CF20C730DF30CF20C72088312F1
:1014F20003139B007108F3007008F200730DF30CE4
:10150200F20C72080139F400F40EF40D1D08740691
:10151200DF3974069D0070080139F200F20E1D08D1
:101522007206EF3972069D0008008316031336080F
:10153200B8003508B700380DB80CB70C380DB80C28
:10154200B70C3708831203139B0083160313360864
:10155200B8003508B700380DB80CB70C3708013998
:10156200B900B90EB90D831203131D0883160313B4
:101572003906DF393906831203139D0083160313DC
:1015820035080139B700B70E831203131D088316FD
:1015920003133706EF393706831203139D00080041
:1015A2000A128A15FB240A128A1583120313091CD4
:1015B200DB2ADC2A082B0A128A1517230A128A153B
:1015C200831603134B080A128A15D9210A128A15A7
:1015D2008316031349080A128A15D9210A128A1599
:1015E200831603135008BA004F08B9004E08BC0016
:1015F2004D08BB004C08BE004B08BD004A08C000A5
:101602004908BF000A128A156F230A128A1583122B
:101612000313891C0D2B0E2BD62A0A128A15D423EA
:101622000A128A15D62A0A128A1112288312031361
:101632009F181C2B1D2B6E2B1F0C83160313B5003A
:10164200350C0F39003A031D272B282B2F2B831221
:1016520003131F08C33904389F00692B8312031335
:101662001F0C83160313B500350C0F39013A031D05
:101672003B2B3C2B432B831203131F08C33908381F
:101682009F00692B831203131F0C83160313B500EB
:10169200350C0F39023A031D4F2B502B572B831257
:1016A20003131F08C3390C389F00692B83120313DD
:1016B2001F0C83160313B500350C0F39033A031DB3
:1016C200632B642B692BC330831203139F05692B91
:1016D2006A2B0000831203139F1408008312031362
:1016E2008618742B752B882B861C782B792B752BDF
:1016F200013083160313B5000030B6003A08B80073
:101702003908B7000A128A1503220A128A158312AF
:10171200031306198D2B8E2BA12B061D912B922BB9
:101722008E2B023083160313B5000030B6003C083E
:10173200B8003B08B7000A128A1503220A128A155A
:10174200831203138619A62BA72BBA2B861DAA2B4D
:10175200AB2BA72B033083160313B5000030B60062
:101762003E08B8003D08B7000A128A1503220A1281
:101772008A1583120313061ABF2BC02BD32B061E06
:10178200C32BC42BC02B043083160313B5000030C7
:10179200B6004008B8003F08B7000A128A150322B3
:1017A2000A128A150800831203138618D92BDA2B22
:1017B200F82B861CDD2BDE2BDA2B0130831603136C
:1017C200B5000030B6000A128A15ED210A128A15F8
:1017D200831603133608C8003508C7004808B60048
:1017E2004708B5000A128A1524220A128A158312A2
:1017F20003130619FD2BFE2B1C2C061D012C022C9B
:10180200FE2B023083160313B5000030B6000A1215
:101812008A15ED210A128A15831603133608C600AB
:101822003508C5004608B6004508B5000A128A15F3
:1018320096220A128A15831203138619212C222C4E
:101842003D2C861D252C262C222C033083160313B7
:10185200B5000030B6000A128A15ED210A128A1567
:10186200831603133608C4003508C30043080A125E
:101872008A15D9210A128A1583120313061A422CD9
:10188200432C5E2C061E462C472C432C0430831618
:101892000313B5000030B6000A128A15ED210A12B0
:1018A2008A15831603133608C2003508C1004108A1
:1018B2000A128A15D9210A128A1508000310831206
:1018C20003136A0D6B0D83160313A0002008831205
:1018D2000313ED006D08031D6F2C702C792C003062
:1018E200EB000030EA000030E9000030E800FA2C9A
:1018F200680883160313A000831203136908831672
:101902000313A100831203136A0883160313A200B0
:10191200831203136B0883160313A3001F300310F3
:10192200A30CA20CA10CA00CFF3E031D902C2008BE
:10193200A400240883120313EC00EA17FF30E80521
:10194200FF30E905FF30EA050030EB059630ED0285
:10195200ED1FAC2CAD2CCB2C6D08803A973E0318B2
:10196200B32CB42CB52C702C01300310EB0CEA0C08
:10197200E90CE80CFF3E031DB62C0130831603135D
:10198200A000200883120313ED07031DC92CCA2CE3
:10199200B52CEA2C20306D02031CD02CD12CE52C66
:1019A200702C013083160313A0000310831203135B
:1019B200E80DE90DEA0DEB0D83160313A00BD62CEF
:1019C200013083120313ED026D08031DE92CEA2C8A
:1019D200D22C6C080319EE2CEF2CFA2CE809E90939
:1019E200EA09EB09E80A0319E90A0319EA0A0319E1
:1019F200EB0A08000F3083160317880089010F30A5
:101A020083160313850083120313850183160313C0
:101A120081131F3095000130960089010130831235
:101A220003138900831603138801831203138801A9
:101A3200831603130F088F3920388F000F14831277
:101A420003131F083F3940389F00831603131F12E8
:101A52009F12C330831203139F05831603139F1330
:101A6200831203131F14352D8316031307158714CE
:101A72008312031397013F3097051708F0390C388A
:101A820097001D08F0390C389D0007309500303062
:101A9200970407309B009D121D168C100330920490
:101AA20012154D3083160313920083128C1C5A2D8B
:101AB2005B2D562D8C1083160313071187101030DF
:101AC2008700831203138701F030940514129416D1
:101AD20083160313141794178312031393018316A7
:101AE2000313181218158316031787151930831656
:101AF200031399009A018312031398178316031391
:101B020018139816831203131816831603130C174F
:101B1200831203130C138B150B10831603138C16ED
:101B2200831203138C128B170B17080083160313EF
:101B32002B08F0002C08F1000030F11BFF30F200FE
:101B4200F30001300A128A154E260A128A1573080A
:101B520083120313DB007208DA007108D9007008DF
:101B6200D800831603132B082D02F0002C08031C47
:101B72002C0A2E02F100F201F11BF2037208F300AB
:101B820001300A128A154E260A128A157308831228
:101B92000313A7007208A6007108A5007008A4002C
:101BA2008316031327082902F0002808031C280AB9
:101BB2002A02F100F201F11BF2037208F300013074
:101BC2000A128A154E260A128A1573088312031303
:101BD200A3007208A2007108A1007008A0000A12F6
:101BE2008A110B260A128A15831203132308C100D5
:101BF2002208C0002108BF002008BE00831603137C
:101C020027082502F0002808031C280A2602F100F2
:101C1200F201F11BF2037208F30001300A128A1575
:101C22004E260A128A15730883120313BD00720826
:101C3200BC007108BB007008BA000A128A11222087
:101C42000A128A15831203133D08D7003C08D600F6
:101C52003B08D5003A08D4000A128A1183230A12DB
:101C62008A15831203135708EB005608EA00550839
:101C7200E9005408E8000A128A155F240A128A153C
:101C820083120313690883160313A6008312031336
:101C9200680883160313A5000800F80078080319E2
:101CA200532E542E682EF31F572E582E682E70096D
:101CB200FA007109FB007209FC007309FD00FA0ABF
:101CC2000319FB0A0319FC0A0319FD0A702E730893
:101CD200FD007208FC007108FB007008FA0073082E
:101CE200720471047004031D772E782E812E003049
:101CF200F3000030F2000030F1000030F000072F56
:101D02009630F4007408F900932E0130F400740840
:101D1200F90701300310FD0CFC0CFB0CFA0CFF3E22
:101D2200031D8B2EFE307D05031D982E992E862EC7
:101D3200B52E0130F4007408F9070130FA070030BB
:101D420003180130FB07003003180130FC07003094
:101D520003180130FD0701300310FD0CFC0CFB0CD5
:101D6200FA0CFF3E031DAD2EFF307D05031DBA2E7A
:101D7200BB2E9A2EC72E0130F9020130F400031057
:101D8200FA0DFB0DFC0DFD0DF40BC02EFC1BCA2E33
:101D9200CB2ED12E023079020318D02ED12EBC2E9A
:101DA2007918D42ED52EDD2EFF30FA05FF30FB0533
:101DB2007F30FC05FF30FD050310F90C7908F400B3
:101DC200F501F601F70118300310F40DF50DF60DCB
:101DD200F70DFF3E031DE52E7408FA047508FB0497
:101DE2007608FC047708FD0478080319F92EFA2E08
:101DF200FF2EF31FFD2EFE2EFF2EFD177D08F30092
:101E02007C08F2007B08F1007A08F00008008312D7
:101E120003130C1F0D2F0E2FBA2F0903031D122FB0
:101E2200132FBA2F1F0C83160313AF002F0C0F3979
:101E3200003A031D1D2F1E2F4C2F831203131E0861
:101E420083160313AF00B0012F08A5003008A600C7
:101E52000030A700A800FF30A9000030AA000F3010
:101E6200AB000030AC002030AD000030AE000A12F2
:101E72008A1597250A128A15831603132608D0009D
:101E82002508CF005008F1004F08F0000A128A110D
:101E9200E8270A128A15831203131F0C83160313F1
:101EA200AF002F0C0F39013A031D582F592F872FDE
:101EB200831203131E0883160313AF00B0012F0809
:101EC200A5003008A6000030A700A800FF30A90036
:101ED2000030AA000F30AB000030AC002030AD0063
:101EE2000030AE000A128A1597250A128A15831647
:101EF20003132608CE002508CD004E08F1004D0838
:101F0200F0000A128A156D220A128A15831203132F
:101F12001F0C83160313AF002F0C0F39023A031D57
:101F2200932F942F9F2F831203131E0883160313DC
:101F3200AF00B0012F08CB003008CC00831203138E
:101F42001F0C83160313AF002F0C0F39033A031D26
:101F5200AB2FAC2FB72F831203131E088316031364
:101F6200AF00B0012F08C9003008CA008312031362
:101F72000C130B1CBD2FBE2FE82F061CC12FC22F26
:101F8200BE2FD22F0230831203138900E72F0430B1
:101F9200831203138900E72F013083120313890090
:101FA200E72F090883160313AF00B0013008003A87
:101FB2000319DC2FE72F2F08013A0319C32F033A25
:101FC2000319C82F063A0319CD2FE72F0B108312DE
:101FD2008C1EEC2FED2FF32F1A0883160313AF007C
:101FE2002F08D100831603133408FF0033088A0038
:0E1FF20032088400310E8300FE0E7E0E0900C0
:08400000FF3FFF3FFF3FFF3FC0
:04400E00D420FF3F7C
:00000001FF
