:060000000A128A110C280F
:10000800FE00030EF2000A08F3000A128A15EF2B0D
:100018000A128A110F280A128A15ED230A128A1168
:10002800F8000A128A15EE230A128A11F9008316BB
:100038000313BA01BB01BC01BD01BE01BF01C00170
:10004800C101C201C30183010A128A15652D8312F9
:10005800031347088039CC004C08D1004708CC006E
:100068004C07CD004D08D700C61F3B283C283D282B
:10007800571457080319412842285128570A031DC5
:10008800462847284F280030C7000030C6000030F7
:10009800C5000030C400C61759280030C70000301A
:1000A800C6000030C5000030C4004B088039CC00C1
:1000B8004C08D1064B08CC004C07CD004D08D600A3
:1000C800CA1F6728682869285614560803196D2816
:1000D8006E287D28560A031D722873287B28003055
:1000E800CB000030CA000030C9000030C800CA1771
:1000F80085280030CB000030CA000030C90000302D
:10010800C8005608031989288A288F285708031D0C
:100118008E288F2898280030C7000030C60000308D
:10012800C5000030C4008B2B4408CC004C08F400F8
:100138004A080A128A11D6270A128A1175088312E8
:100148000313DD007408DC005C08CC00CD01CE018F
:10015800CF014F08D5004E08D4004D08D3004C08F5
:10016800D2005D08CC00CD01CE01CF014F08DB00E5
:100178004E08DA004D08D9004C08D8004508CC00D4
:100188004C08F40049080A128A11D6270A128A1163
:10019800750883120313DD007408DC005C08CC00CA
:1001A800CD01CE01CF014C08D2074D080311031829
:1001B800013E0319E028D3074E0803110318013E36
:1001C8000319E728D4074F0803110318013E031940
:1001D800EE28D5075D08CC00CD01CE01CF014C0833
:1001E800D8074D0803110318013E0319FC28D90745
:1001F8004E0803110318013E03190329DA074F08B3
:1002080003110318013E03190A29DB074608CC002D
:100218004C08F40048080A128A11D6270A128A11D3
:10022800750883120313DD007408DC005C08CC0039
:10023800CD01CE01CF014C08D2074D080311031898
:10024800013E03192829D3074E0803110318013E5C
:1002580003192F29D4074F0803110318013E031966
:100268003629D5075D08CC00CD01CE01CF014C0859
:10027800D8074D0803110318013E03194429D9076B
:100288004E0803110318013E03194B29DA074F08DA
:1002980003110318013E03195229DB070830CC006B
:1002A8000310D20DD30DD40DD50DCC0B5429450810
:1002B800CC004C08F40048080A128A11D6270A1202
:1002C8008A11750883120313DD007408DC005C08CA
:1002D800CC005D08CD00CE01CF014C08D2074D08F7
:1002E80003110318013E03197A29D3074E08031195
:1002F8000318013E03198129D4074F080311031875
:10030800013E03198829D5074408CC004C08F4009D
:1003180049080A128A11D6270A128A117508831207
:100328000313DD007408DC005C08CC005D08CD0018
:10033800CE01CF014C08D2074D0803110318013E26
:100348000319A729D3074E0803110318013E0319FF
:10035800AE29D4074F0803110318013E0319B52924
:10036800D5070830CC000310D20DD30DD40DD50D10
:10037800CC0BB7294408CC004C08F40048080A12F2
:100388008A11D6270A128A11750883120313DD0011
:100398007408DC005C08CC005D08CD00CE01CF01FC
:1003A8004C08D2074D0803110318013E0319DD2933
:1003B800D3074E0803110318013E0319E429D40793
:1003C8004F0803110318013E0319EB29D507450807
:1003D800CC004C08F4004A080A128A11D6270A12DF
:1003E8008A11750883120313DD007408DC005C08A9
:1003F800CC005D08CD00CE01CF014C08D8074D08D0
:1004080003110318013E03190A2AD9074E080311DC
:100418000318013E0319112ADA074F0803110318BC
:10042800013E0319182ADB074608CC004C08F400E3
:1004380049080A128A11D6270A128A1175088312E6
:100448000313DD007408DC005C08CC005D08CD00F7
:10045800CE01CF014C08D8074D0803110318013EFF
:100468000319372AD9074E0803110318013E031947
:100478003E2ADA074F0803110318013E0319452ADB
:10048800DB074608CC004C08F4004A080A128A1117
:10049800D6270A128A11750883120313DD0074081F
:1004A800DC005C08CC005D08CD00CE01CF0108302F
:1004B8000310CC0DCD0DCE0DCF0DFF3E031D5C2AD4
:1004C8004C08D8074D0803110318013E03196D2A7B
:1004D800D9074E0803110318013E0319742ADA07D5
:1004E8004F0803110318013E03197B2ADB07520842
:1004F800CC005308CD005408CE005508CF00183062
:100508000310CF0CCE0CCD0CCC0CFF3E031D842A5F
:100518004C08D8074D0803110318013E0319952A02
:10052800D9074E0803110318013E03199C2ADA075C
:100538004F0803110318013E0319A32ADB070830EB
:10054800CC000310D20DD30DD40DD50DCC0BA52A9C
:1005580057085607CC00CD01CD0D4C08823EDC0073
:100568004D080318013EFF3EDD00D72A0130CC00BC
:100578000310D80DD90DDA0DDB0DCC0BBC2AD51F15
:10058800C62AC72AC82A58140130CC000310D20D35
:10059800D30DD40DD50DCC0BCA2AFF30DC070318B8
:1005A800DD0AFF30DD07DA1FDA2ADB2ABA2AD6018C
:1005B800D51FDF2AE02AFC2AFF305205CC00FF3085
:1005C8005305CD00FF305405CE007F305505CF00D0
:1005D8004F084E044D044C040319F32AF42AF72A51
:1005E800D601D60AFC2A581CFA2AFB2AFC2AF42A25
:1005F80056080319002B012B322B0130D807003085
:1006080003180130D907003003180130DA07003029
:1006180003180130DB075B1C122B132B322B5808F5
:10062800CC005908CD005A08CE005B08CF00013035
:10063800D0004F0DCF0CCE0CCD0CCC0CD00B1D2BFD
:100648004F08DB004E08DA004D08D9004C08D800E6
:100658000130DC070318DD0A0030DD075D08803A49
:10066800FF0080307F02031D3B2BFF305C02031C20
:100678003E2B3F2B4A2B7F3083120313DB00803045
:10068800DA000030D9000030D8007F2B8312031322
:100698005D08803AFF0080307F02031D552B013032
:1006A8005C020318582B592B652B00308312031357
:1006B800DB000030DA000030D9000030D800D1016A
:1006C8007F2B831203135C08CC004C08D700FF3043
:1006D800D805FF30D9057F30DA050030DB05571C17
:1006E800762B772B782BDA175708CC0003104C0C95
:1006F800CD004D08DB005108CC004C08DB045B083A
:10070800C7005A08C6005908C5005808C4000800A0
:100718008312031361088039E60066088316031301
:10072800A000831203136108E6006607E700670864
:1007380083160313A20083120313E01FA42BA52B17
:10074800A82B8316031322148316031322080319F4
:10075800AE2BAF2BC22B220A031DB32BB42BBE2BFF
:10076800003083120313E1000030E0000030DF00A6
:100778000030DE008312E017E101CC2B0030831239
:100788000313E1000030E0000030DF000030DE003D
:1007980065088039E600660883160313A10021085E
:1007A80020060319D82BD92BDA2B20178312031311
:1007B8006508E6006607E700670883160313A100CB
:1007C80083120313E41FE92BEA2BED2B8316031383
:1007D80021148316031321080319F32BF42B072C78
:1007E800210A031DF82BF92B032C00308312031365
:1007F800E5000030E4000030E3000030E20083123E
:10080800E417E501112C003083120313E5000030D2
:10081800E4000030E3000030E200831603132208EE
:1008280021020318182C192C8F2C201F1C2C1D2C6E
:10083800252C803083120313E60066088316031301
:10084800A006220883120313E60066088316031322
:10085800A300210883120313E60066088316031316
:10086800A200230883120313E60066088316031305
:10087800A100831203135E08E600660883160313BB
:10088800A300831203136208E6006608DE008316DD
:100898000313230883120313E6006608E2005F08C7
:1008A800E600660883160313A30083120313630884
:1008B800E6006608DF008316031323088312031378
:1008C800E6006608E3006008E6006608831603137E
:1008D800A300831203136408E6006608E000831689
:1008E8000313230883120313E6006608E400610873
:1008F800E600660883160313A30083120313650832
:10090800E6006608E1008316031323088312031325
:10091800E6006608E50083160313A3012108831285
:100928000313E600E7016708E900831603132208AA
:10093800831203136602E800031CE9036908803A7E
:10094800FF0080307F02031DAB2C1A306802031CA5
:10095800AE2CAF2C012D83120313610860045F04D1
:100968005E04031DB82CBA2C0130BB2C0030E60005
:10097800660883160313A300003083120313E100F3
:100988000030E0000030DF000030DE008316031383
:10099800210883120313E600660883160313A200D6
:1009A800092D231CD82CD92CE62C230883120313D9
:1009B800E6000310660C0138E70067088316031386
:1009C800A300E82C0310A30C831203135E1CED2C68
:1009D800EE2CF12C83160313A31701308312E600C3
:1009E800610DE10CE00CDF0CDE0CE60BF42C0130A1
:1009F800E600660883160313A2078316031321086B
:100A08002202031C082D092DD52C201B0C2D0D2D81
:100A1800692D2208031D112D122D1D2D0030831262
:100A28000313E1000030E0000030DF000030DE009A
:100A3800CB2E831203136208DE0763080311031821
:100A4800013E0319282DDF07640803110318013E2E
:100A580003192F2DE007650803110318013E031938
:100A6800362DE107611C392D3A2D2F2E83160313DD
:100A7800231C3F2D402D4D2D230883120313E60020
:100A88000310660C0138E700670883160313A300F8
:100A98004F2D0310A30C831203135E1C542D552DE8
:100AA800582D83160313A31701308312E600610D36
:100AB800E10CE00CDF0CDE0CE60B5B2D0130E600F0
:100AC800660883160313A2072F2E831203136108E7
:100AD800803AFF006508803A7F02031D7D2D640877
:100AE8006002031D7D2D63085F02031D7D2D6208D2
:100AF8005E020318802D812DDD2DFF30E600FF30CA
:100B0800E700FF30E800FF30E9006208EA00630808
:100B1800EB006408EC006508ED005E08EA025F0877
:100B2800031C5F0F982D992DEB026008031C600FC2
:100B38009E2D9F2DEC026108031C610FA42DA52D8D
:100B4800ED026A08E6076B0803186B0FAC2DAD2D94
:100B5800E7076C0803186C0FB22DB32DE8076D0872
:100B680003186D0AE9076908E1006808E0006708EA
:100B7800DF006608DE008030E6006608831603138F
:100B8800A006A309A30A2308031DCB2DCC2DEB2D0A
:100B9800013083120313DE07003003180130DF072A
:100BA800003003180130E007003003180130E10776
:100BB800EB2D6208DE026308031C630FDF02640882
:100BC800031C640FE0026508031C650FE102831231
:100BD800610860045F045E04031DF32DF42D2A2EC2
:100BE800831603132308031DFA2DFB2D2A2E00302C
:100BF80083120313E1000030E0000030DF00003012
:100C0800DE00CB2E0130E6000310DE0DDF0DE00D17
:100C1800E10DE60B082E83160313A31F142E152EC1
:100C2800182E831203135E1483160313231C1D2E20
:100C38001E2E212E0314A30D232E0310A30D22080C
:100C48000319272E282E2A2E0130A2028312E01F14
:100C58002E2E2F2E062E83160313A101A31F352E29
:100C6800362E482E23087F3903193B2E3C2E412E61
:100C780083160313A101A10A482E831203135E1CD5
:100C8800462E472E482E3C2E83160313210803199F
:100C98004E2E4F2E8B2E013083120313DE070030A9
:100CA80003180130DF07003003180130E007003077
:100CB80003180130E107611C622E632E8B2E5E083B
:100CC800E6005F08E7006008E8006108E900013015
:100CD800EA00690DE90CE80CE70CE60CEA0B6D2E4E
:100CE8006908E1006808E0006708DF006608DE00C0
:100CF80083160313220A0319822E832E8B2E0130AA
:100D080083120313E600660883160313A2078316EB
:100D18000313220A0319912E922E972E2208031DDF
:100D2800962E972EA92E003083120313E10000306F
:100D3800E0000030DF000030DE00831603132208D5
:100D4800031DA72EA82EA92EA001221CAC2EAD2E65
:100D5800B12E83120313E017B72E7F3083120313CB
:100D6800E6006608E00583160313220883120313BE
:100D7800E6000310660CE7006708E100831603131A
:100D8800A01FC72EC82ECB2E83120313E11708000D
:100D9800831603133308F4003408F5000030F51BFC
:100DA800FF30F600F70001300A128A15A9240A124A
:100DB8008A11770883120313E5007608E4007508A2
:100DC800E3007408E2008316031333083502F400C5
:100DD8003408031C340A3602F500F601F51BF60345
:100DE8007608F70001300A128A15A9240A128A1116
:100DF800770883120313B1007608B0007508AF00B6
:100E08007408AE00831603132F083102F40030086B
:100E1800031C300A3202F500F601F51BF6037608CA
:100E2800F70001300A128A15A9240A128A117708D4
:100E380083120313AD007608AC007508AB00740884
:100E4800AA000A128A1523260A128A11831203138A
:100E58002D08CB002C08CA002B08C9002A08C80096
:100E6800831603132F082D02F4003008031C300AE0
:100E78002E02F500F601F51BF6037608F70001309F
:100E88000A128A15A9240A128A11770883120313F1
:100E9800C7007608C6007508C5007408C4000A12A1
:100EA8008A112B200A128A11831203134708E100C2
:100EB8004608E0004508DF004408DE000A128A11EF
:100EC8008C230A128A1183120313610883160313F1
:100ED800A70083120313600883160313A600831266
:100EE80003135F0883160313A500831203135E0818
:100EF80083160313A4000A128A1517240A128A11EA
:100F0800831603132508AE002408AD0008008316D5
:100F1800031788018901831603130F088F392038B6
:100F28008F000F14071587148312031397013F309E
:100F380097051708F0390C3897001D08F0390C3858
:100F48009D00073095003030970407309B009D12B4
:100F58001D168C100330920412154D30831603139E
:100F6800920083128C1CB92FBA2FB52F8C108316C0
:100F780003130711871087150716871283120313A7
:100F880087011408F0390438940014129416831653
:100F98000313141794138C15831203138C118B17D6
:100FA8000B17080083120313A400A001A101740801
:100FB800F600F7017608A2007708A300241CE52FA5
:100FC800E62FEC2F2208A0070318A10A2308A1077F
:100FD80001300310A20DA30DFF3E031DED2F0310DA
:100FE800A40C2408031DF92FFA2FE22F2108F5007D
:060FF8002008F4000800CF
:1017DA0002340034831203138C1DF42BF52B102CC6
:1017EA001308F000F101700883160313BE00710894
:1017FA00BF00141C012C022CFE2B831203131308A6
:10180A00F000F101700883160313C0007108C100CB
:10181A00831203138C1173088A00720E8300FE0E62
:10182A007E0E0900031083160313260D270DA80048
:10183A00280883120313EF006F08031D252C262C9A
:10184A00312C003083160313A7000030A6000030A5
:10185A00A5000030A400A82C831603132408A800AE
:10186A002508A9002608AA002708AB001F30031084
:10187A00AB0CAA0CA90CA80CFF3E031D3C2C280893
:10188A00AC002C0883120313EE0083160313A61769
:10189A00FF30A405FF30A505FF30A6050030A705D7
:1018AA00963083120313EF02EF1F5C2C5D2C7B2C06
:1018BA006F08803A973E0318632C642C652C262CFB
:1018CA000130031083160313A70CA60CA50CA40C55
:1018DA00FF3E031D662C0130A8002808831203135B
:1018EA00EF07031D792C7A2C652C962C20306F0279
:1018FA00031C802C812C912C262C01308316031377
:10190A00A8000310A40DA50DA60DA70DA80B862CE3
:10191A00013083120313EF026F08031D952C962CD6
:10192A00822C6E0803199A2C9B2CA82C831603135D
:10193A00A409A509A609A709A40A0319A50A03194E
:10194A00A60A0319A70A080083120313A40024088D
:10195A000319B02CB12CC52CF71FB42CB52CC52CEF
:10196A007409A6007509A7007609A8007709A900D5
:10197A00A60A0319A70A0319A80A0319A90ACD2C4A
:10198A007708A9007608A8007508A7007408A600B9
:10199A007708760475047404031DD42CD52CDE2C28
:1019AA000030F7000030F6000030F5000030F40097
:1019BA00642D9630A0002008A500F02C0130A0006C
:1019CA002008A50701300310A90CA80CA70CA60C27
:1019DA00FF3E031DE82CFE302905031DF52CF62CCD
:1019EA00E32C122D0130A0002008A5070130A6071C
:1019FA00003003180130A707003003180130A80788
:101A0A00003003180130A90701300310A90CA80CF3
:101A1A00A70CA60CFF3E031D0A2DFF302905031D46
:101A2A00172D182DF72C242D0130A5020130A00006
:101A3A000310A60DA70DA80DA90DA00B1D2DA81BFF
:101A4A00272D282D2E2D0230250203182D2D2E2D5F
:101A5A00192D2518312D322D3A2DFF30A605FF30CC
:101A6A00A7057F30A805FF30A9050310A50C250896
:101A7A00A000A101A201A30118300310A00DA10D1D
:101A8A00A20DA30DFF3E031D422D2008A604210826
:101A9A00A7042208A8042308A90424080319562D18
:101AAA00572D5C2DF71F5A2D5B2D5C2DA917290880
:101ABA00F7002808F6002708F5002608F4000800B1
:101ACA000A128A118B270A128A15831603134108F0
:101ADA003D06031D722D40083C060319752D762D0F
:101AEA00B92D4108AE004008AD000030AF00B0008B
:101AFA00FF30B1000030B2000F30B3000030B40044
:101B0A002030B5000030B6000A128A11CC260A121B
:101B1A008A15831603132E08C3002D08C200430832
:101B2A00B8004208B7000310B80CB70C0310B80C81
:101B3A00B70C370883120313950083160313420860
:101B4A000339B700B70E831203131708831603135A
:101B5A003706CF3937068312031397008316031308
:101B6A004108BD004008BC003F083B06031DBF2DCD
:101B7A003E083A060319C22DC32D6A2D3F08AE004E
:101B8A003E08AD000030AF00B000FF30B1000030B9
:101B9A00B2000F30B3000030B4002030B50000307E
:101BAA00B6000A128A11CC260A128A158316031362
:101BBA002E08C3002D08C2004308B8004208B70027
:101BCA000310B80CB70C0310B80CB70C3708831203
:101BDA0003139B00831603134308B8004208B70097
:101BEA000310B80CB70C37080139B900B90EB90D92
:101BFA00831203131D08831603133906DF393906C6
:101C0A00831203139D008316031342080139B70098
:101C1A00B70E831203131D08831603133706EF3911
:101C2A003706831203139D00831603133F08BB0074
:101C3A003E08BA006A2D0A128A110C28831203136D
:101C4A0031088039B2003208BB003108B2003207CD
:101C5A00B3003308C200B01F332E342E352E42147F
:101C6A0042080319392E3A2E4A2E420A031D3E2EE5
:101C7A003F2E472E0030B1000030B0000030AF00D8
:101C8A000030AE00B017B101522E0030B100003062
:101C9A00B0000030AF000030AE002D088039B2002D
:101CAA003208BB062D08B2003207B3003308C3005E
:101CBA00AC1F602E612E622E431443080319662E50
:101CCA00672E772E430A031D6B2E6C2E742E00305E
:101CDA00AD000030AC000030AB000030AA00AC17F9
:101CEA00AD017F2E0030AD000030AC000030AB00FB
:101CFA000030AA002D082C042B042A04031D862E6A
:101D0A00872EA02E0030B1000030B0000030AF00A6
:101D1A000030AE008030B0047F30B1043B08B2001E
:101D2A003208B1043108AD003008AC002F08AB000E
:101D3A002E08AA00FF2F4208031DA42EA52EAE2EA0
:101D4A000030AD000030AC000030AB000030AA001B
:101D5A00FF2F4208B200B3013308B500430832022C
:101D6A00B400031CB50334087F3EBC0035080318D1
:101D7A00013E003EBD003108BA003008B9002F0804
:101D8A00B8002E08B7000030B1000030B0000030B3
:101D9A00AF000030AE000030C1000030C00000309B
:101DAA00BF000030BE00C301242F43080319DE2EF2
:101DBA00DF2EFF2E0130B2000310B70DB80DB90D9A
:101DCA00BA0DB20BE12E0130B2000310AE0DAF0D09
:101DDA00B00DB10DB20BEA2EC11FF42EF52EF62E60
:101DEA002E140130B2000310BE0DBF0DC00DC10D7F
:101DFA00B20BF82E2D083A02031D0D2F2C083902BA
:101E0A00031D0D2F2B083802031D0D2F2A08370238
:101E1A00031C102F112F202F41172A08B7022B0855
:101E2A00031C2B0FB8022C08031C2C0FB9022D0817
:101E3A00031C2D0FBA020130B2003208C3071A3050
:101E4A004302031C292F2A2FDA2E3A0839043804B0
:101E5A0037040319312F322F512F3E14512F0130DD
:101E6A00B2000310AE0DAF0DB00DB10DB20B362F8F
:101E7A00C11F402F412F422F2E140130B2000310F0
:101E8A00BE0DBF0DC00DC10DB20B442FFF30BC07F4
:101E9A000318BD0AFF30BD07B01F542F552F342F2A
:101EAA00C301C11F592F5A2F762FFF303E05B200AA
:101EBA00FF303F05B300FF304005B4007F304105D5
:101ECA00B500350834043304320403196D2F6E2F1C
:101EDA00712FC301C30A762F2E1C742F752F762FEC
:101EEA006E2F430803197A2F7B2FAC2F0130AE07D0
:101EFA00003003180130AF07003003180130B00773
:101F0A00003003180130B107311C8C2F8D2FAC2FF4
:101F1A002E08B2002F08B3003008B4003108B5000B
:101F2A000130B600350DB50CB40CB30CB20CB60BBF
:101F3A00972F3508B1003408B0003308AF003208D3
:101F4A00AE000130BC070318BD0A0030BD073D08CA
:101F5A00803AFF0080307F02031DB52FFF303C021C
:101F6A00031CB82FB92FC72FFF3083120313BC00ED
:101F7A000030BD000030B1000030B0000030AF00CA
:101F8A000030AE00831203133D08803AFF00803010
:101F9A007F02031DD22F01303C020318D52FD62F02
:101FAA00E32F83120313BC01BD010030B1000030DE
:101FBA00B0000030AF000030AE00BB018312031343
:101FCA003C08B2003208C200421CEC2FED2FEF2F62
:101FDA00B017F32F7F30B2003208B0054208B200C2
:101FEA000310320CB3003308B1003B08B2003208C8
:061FFA00B104972E08005F
:08400000FF3FFF3FFF3FFF3FC0
:04400E00D420FF3F7C
:00000001FF
